:020000040000FA
:10000000A00400205D0B0000650B0000670B0000E2
:10001000690B0000690B0000690B0000690B000010
:10002000690B0000690B0000690B0000690B000000
:10003000690B0000690B0000690B0000690B0000F0
:10004000690B0000690B0000690B0000690B0000E0
:10040000FFFFFFFFFFFFFFFFFFFFFFFFFEFFFFFFFD
:10041000DFF80CD003F082FA004800472504000002
:10042000A004002072B64FF4E1310B4800F052F9FD
:1004300000F0BCF802F0D7FF62B602F099FF02F0BC
:1004400087FF02F0DEFF02F0A0FF04E0072203A115
:10045000002001F097FEF9E700A006400D0A3132B6
:100460003334350D0A000000002106E0002200E0D0
:10047000521CB2F5FA7FFBD3491C8142F6D3704778
:10048000014600BF8B4AD26A12F0007FFAD0894A37
:10049000506B6FF30F000843506300BF854AD26A68
:1004A00012F0004FFAD0834AD26A42F00042814BE8
:1004B000DA627047014600BF7E4AD26A12F0007FBE
:1004C000FAD07C4A506B6FF30F000843506300BFB3
:1004D000784AD26A12F0004FFAD0764AD26A42F0D5
:1004E0000042744BDA62704710B500240020FFF719
:1004F000E1FF00BF6F48C06A10F4003FFAD06D48BA
:10050000846BC06A40F400306A49C862E0B210BD32
:10051000012080F3108800BF7047002080F310880E
:1005200000BF704700B56448006840F001006349AF
:10053000C1F8C8004FF4FA70FFF796FF00BD00B590
:100540004FF4FA70FFF790FF5D48006840F001003B
:100550005A49C1F8C40000BD5A48806B40F480502D
:10056000584988635848406840F4007056494860CC
:100570000846806840F4007088600846C06840F40F
:100580000070C8600846006840F4807008604C48FD
:10059000006840F001004949C1F8C4000846D0F89D
:1005A000D40040F00100C1F8D400704700B5FFF757
:1005B000D3FF4448C06B40F480504249C8633D4873
:1005C0000068424908433B4908600846C06820F07B
:1005D000F040C8600846C0683D4908433549C860D6
:1005E0000846C06840F0C060C8600846C06840F077
:1005F0000110C8600846006844F2010188432D4993
:100600000860FF20FFF756FF6420FFF72DFF00BDB5
:1006100010B500240020FFF74DFF00BF2548C06A39
:1006200010F4003FFAD02348846BC06A40F40030D5
:100630002049C862204610BD2DE9F04104460E460F
:1006400015461F464FF0000809E01A48806B00F07D
:10065000FF081848C06A40F400301649C8621548BF
:10066000C06A10F4003FF0D103E014F8010BFFF76B
:1006700021FF3000A6F10101CEB2F6D109E00D480C
:10068000806B00F0FF080B48C06A40F40030094955
:10069000C8620848C06A10F4003FF0D103E0FFF7D9
:1006A000B7FF05F8010B3800A7F10101CFB2F6D171
:1006B000BDE8F08100C00240C8F00F4000F00F40DC
:1006C000C4F00F400080044000C0044000300081AE
:1006D000000C30382DE9F04104460E46012000F0B0
:1006E00042FF8046FE48844202D0FE48844203D145
:1006F000002000F038FF80463001B8FBF0F085B2F2
:100700004FEA4800B0FBF6F0A0EB4510C7B2F6493F
:10071000601A8C4254D006DCF44820180AD0B0F598
:10072000805F70D129E0B0F5805F6ED0B0F5FE2F0C
:10073000F7D18DE0EE48806B40F40070EC4988639F
:10074000EC48806B20F4E060EA4988634FF4407025
:1007500088630846C06B20F4E060C8630846C06B3D
:1007600040F44070C863E248406B40F48060E04968
:1007700048632D2000F0E3F98EE0DD48806B40F403
:100780000060DB498863DC48006920F4E060DA49F6
:1007900008614FF4407008610846C06820F4E060CA
:1007A000C8600846C06840F44070C860D048406BDC
:1007B00040F40060CE4948632F2000F0C0F96BE0A0
:1007C000CB48806B40F48050C9498863CB48C068EF
:1007D00020F4E060C949C8604FF44070C860084622
:1007E000806820F4E06088600846806840F44070CB
:1007F0008860BF48406B40F48050BD494863312059
:1008000000F09DF948E046E0FFE7B948806B40F40E
:100810000050B7498863BA48006920F4E060B849DD
:1008200008614FF4407008610846406920F4E060B8
:1008300048610846406940F440704861AC48406BEC
:1008400040F40050AA494863332000F078F923E0CF
:10085000A748806B40F40050A5498863A848006A07
:1008600020F4E060A64908624FF440700862084630
:10087000406A20F4E06048620846406A40F44070F4
:1008800048629B48806A40F400609949886237203A
:1008900000F055F900E000BF00BFE07820F00C0048
:1008A000E070A07820F01000A070A07820F0020086
:1008B000A070607920F0200060712078C5F30421D9
:1008C000084320706570A07A07F01F010843A072EA
:1008D000207C40F088002074607C40F0010060744F
:1008E0000520E0746075E07840F00C00E070E0787E
:1008F00040F02000E070BDE8F08100BF027912F006
:10090000800FFBD0C171704710B503460C46D9B2B9
:100910007348FFF7F2FF184610BD70B506460C4647
:100920001546002304E0E15C3046FFF7E6FF5B1C60
:10093000AB42F8DB70BD00BF6949097911F0400F87
:10094000FAD06749C8710A2808D100BF64490979FB
:1009500011F0400FFAD00D21614AD171704700B5F6
:10096000034603E013F8010BFFF7E5FF18780028B2
:10097000F8D100BD0246002308E0107910F0200FE6
:1009800003D0D0790870012070475B1C4FF6BB3054
:100990008342F2D90020F7E75148407C40F0400004
:1009A0004F4948740846407C40F0800048747047C6
:1009B0004B48C07840F020004949C870704748480B
:1009C000C07820F080004649C87070474448C0781D
:1009D00040F080004249C87070474148C07820F01C
:1009E00080003F49C870704710B54648007801281C
:1009F00015D1FFF7F2FF0020434908604349086022
:100A0000FFF7E4FF424943A002F0BAFFFFF7D7FF28
:100A1000FFF7CEFF00203B490870FFF7BDFF10BD78
:100A20002DE9F041012700262D48007910F0200F14
:100A300011D0002507E02A48C07935498855701C37
:100A4000C6B2681CC5B22648407DA842F3DC01202E
:100A50002C49087029E02248007910F0800F24D03A
:100A600021E02F4828490968445C14B9002027492F
:100A700008601B48C07C25490968884200D934B900
:100A80000020224908600027FFF799FF0BE0144877
:100A9000C4711E480068401C1C4908601A48006860
:100AA000401C19490860002FDBD1FFF79DFFBDE80E
:100AB000F08110B5332000F01F0201219140194A46
:100AC000430942F8231000BF00F039F83320012118
:100AD00000282EDA0A07140E134A00F00F0325E04F
:100AE00000A0064000B0064000C006400060F9BF0C
:100AF000008004400090044000B0044000C0044066
:100B000000D0044000000020040000200800002065
:100B10000C0000200D0A202564200D0A00000000B2
:100B20001000002080E200E018ED00E01B1FD4540C
:100B300003E00A07130E084A135400BF10BD00F06B
:100B40001F020121914042094FF0E02303EB820292
:100B5000C2F800117047000000E400E000F0B5FCAE
:100B6000FFF756BCFEE7FEE7FEE70000F0B5FE4EDD
:100B70003568366846F47F06FB4F3E603E0406EA61
:100B800000764FF0706707EA01673E434FF4700745
:100B900007EA02573E434FF4702707EA03473E43F4
:100BA000F24F7E64002400E0641C9C42FCD3EE4EB5
:100BB0003560F0BD2DE9F04184460D46164649F6F4
:100BC0009600B5FBF0F447F61220B5FBF0F3E848C9
:100BD00085423BD8012C03D813B10022012133E018
:100BE000022C04D8022B02D3012202212CE0042C77
:100BF00004D8042B02D30222042125E0082C04D8B7
:100C0000082B02D3032208211EE0102C04D8102B3D
:100C100002D30422102117E0202C04D8202B02D369
:100C20000522202110E0402C04D8402B02D30622BC
:100C3000402109E0802C04D8802B02D30722802198
:100C400002E00120BDE8F08100273EE0202C04D81E
:100C5000202B02D3002220212BE0402C04D8402B53
:100C600002D30122402124E0802C04D8802B02D31F
:100C7000022280211DE0B4F5807F05D8FF2B03D927
:100C800003224FF4807114E0B4F5007F05D8B3F56A
:100C9000007F02D30422D1010BE0B4F5806F06D8A7
:100CA000B3F5806F03D305224FF4806101E001208A
:100CB000C8E7B048854201D8012706E0AE48854222
:100CC00001D8022701E00120BCE7AC48407820F0C1
:100CD000300040EA0710DFF8A48288F8010040469F
:100CE000007820F0380040EAC20088F80000BCF12B
:100CF000010F11D140F6D7704843B5EBC00F0BD9A7
:100D000048F247104843A84206D94046C07840F010
:100D1000800088F8030007E09848C07820F0800041
:100D2000DFF8588288F803009548864208D2934835
:100D3000C07820F06000DFF8448288F8030023E0E8
:100D4000904886420AD28D48C07820F0600040F07A
:100D50002000DFF8288288F8030015E08A488642E0
:100D60000AD28648C07820F0600040F04000DFF8EA
:100D70000C8288F8030007E08048C07840F06000EB
:100D8000DFF8F88188F8030000205BE72DE9F043E5
:100D9000804694467648814201D800260CE075488A
:100DA000814201D8012607E07348814201D802261A
:100DB00002E00120BDE8F08374480844DFF8CC91DC
:100DC00009F10109B0FBF9F44FEA6900B1FBF0F554
:100DD00015B10CB1072C01D90120EBE72B460CE033
:100DE000B1FBF3F70CEB0700401EB0FBF7F2182A3B
:100DF00002D3372A00D802E05B1EA342F0D200BF24
:100E0000182A01D22B461822372A01D92346372225
:100E100003B901235B1E183A5848407820F030008F
:100E200040EA0610DFF8549189F80100484600793D
:100E300020F01F00184389F804004846407920F04C
:100E40001F00104389F805000020B3E770B506467F
:100E5000032E01D0012070BD4D4A4FF40041002007
:100E6000FFF7A8FE4548007840F0040043490870A9
:100E70000846407920F0400048710846407820F04C
:100E8000020048700846007820F0C000087000BFDB
:100E90003A48807910F0100FFAD000BF37488079B7
:100EA00010F0200FFAD100BF3448807910F00C0FF9
:100EB000FAD1384A4FF400410020FFF77BFE054687
:100EC0000DB12846C7E7002400E0641CB4F57A7F22
:100ED000FBD30020BFE730B50446032C03D0022C1F
:100EE00001D0012030BD2A4A4FF400410020FFF715
:100EF00061FE2248007840F004002049087008464E
:100F0000407920F0400048710846407820F0020007
:100F10004870032C05D10846407820F00100487045
:100F200007E0022C05D11548407840F00100134934
:100F300048701248007820F0C00040F040000F498F
:100F4000087000BF0D48807910F0100FFAD000BF74
:100F50000A48807910F0200FFAD108480578007807
:100F600040F00200054917E000F001400080044015
:100F7000C0C62D0000127A000048E801004006407B
:100F80000051250280F93703802FA604FF083D0099
:100F900000366E0100E1F5050870032C06D100BF94
:100FA000FE48807910F0010FFAD107E0022C05D13C
:100FB00000BFFA48807910F0010FFAD0F7480570A9
:100FC00000BFF648807900F00C000428F9D1002019
:100FD00088E70146032903D0022901D00120704788
:100FE00003290CD1ED48407820F00100EB4B5870FC
:100FF00000BFEA48807910F0010FFAD10DE0022914
:101000000BD1E648407840F00100E44B587000BF37
:10101000E248807910F0010FFAD0E048007820F023
:10102000C00040F04000DD4B187018460278007890
:1010300040F002001870032906D100BFD74880791C
:1010400010F0010FFAD107E0022905D100BFD34803
:10105000807910F0010FFAD0D048027000BFCF485D
:10106000807900F00C000428F9D1CC48407840F099
:101070000200CA4B58700020B1E770B50446012C3D
:1010800002D00CB1012070BD012C1BD1C44AE10378
:101090000120FFF78FFD05460DB12846F3E7C14853
:1010A000C06B40F00050BF49C863BF48006940F4BE
:1010B0008070BD490861BB48406840F00100B949F3
:1010C000486015E0A4B9B64AB8490120FFF772FD9F
:1010D00005460DB12846D6E7B048407840F00C00F0
:1010E000AE494870AF48406820F00100AD49486003
:1010F000AA48007820F00400A84908700846407902
:1011000020F0400048710846407820F00200487006
:101110000846007820F0C0000870012C06D02CB9D9
:1011200000BF9E48807910F0020FFAD000BF9B48A4
:10113000807910F0100FFAD100BF9848807910F034
:10114000200FFAD100BF9548807910F00C0FFAD12A
:10115000012C08D1964AE1030120FFF72BFD05463B
:101160005DB128468FE744B9914A90490120FFF7C5
:1011700021FD05460DB1284685E7002600E0761CD6
:10118000B6F57A7FFBD300207DE730B50446012C0D
:1011900002D00CB1012030BD012C1BD1804AE103EB
:1011A0000120FFF707FD05460DB12846F3E77D480E
:1011B000C06B40F000507B49C8637B48006940F435
:1011C0008070794908617748406840F001007549AE
:1011D000486015E0A4B9724A74490120FFF7EAFC9F
:1011E00005460DB12846D6E76C48407840F00C0023
:1011F0006A4948706B48406820F0010069494860BE
:101200006648007820F00400644908700846407978
:1012100020F0400048710846407820F002004870F5
:101220000846007820F0C00040F080000870012CD3
:1012300006D02CB900BF5948807910F0020FFAD0BF
:1012400000BF5648807910F0100FFAD100BF534804
:10125000807910F0200FFAD100BF5048807900F05B
:101260000C000828F9D1002095E730B50446012C80
:1012700002D00CB1012030BD012C1BD1484AE10342
:101280000120FFF797FC05460DB12846F3E74548D6
:10129000C06B40F000504349C8634348006940F4C4
:1012A0008070414908613F48406840F001003D4975
:1012B000486015E0A4B93A4A3C490120FFF77AFC9E
:1012C00005460DB12846D6E73448407840F00C007A
:1012D000324948703348406820F001003149486085
:1012E0002E48007820F0C00040F080002B490870A4
:1012F000012C06D02CB900BF2848807910F0020FCD
:10130000FAD000BF2548807900F00C000828F9D1F8
:101310002248407840F00200204948700020AAE7A7
:1013200030B505460DB1012030BD214A1F490120CD
:10133000FFF72CFD04460CB12046F5E7174840782E
:1013400040F00C00154948701648406820F0010034
:10135000144948601148407940F040000F494871F5
:101360000846407820F0020048700846007820F0D7
:10137000C00040F08000087000BF0848807910F07D
:10138000020FFAD000BF0548807910F0200FFAD084
:1013900000BF0248807900F00C000BE000400640DE
:1013A00000366E010080044000D0034000093D007B
:1013B00000E1F5050828ECD10020B5E730B5054679
:1013C0000DB1012030BDFC4AFC490120FFF7DEFCD5
:1013D00004460CB12046F5E7F948407840F00C008F
:1013E000F7494870F748406820F00100F549486027
:1013F000F348407940F04000F14948710846407890
:1014000020F0020048700846007820F0C000087004
:1014100000BFEB48807910F0020FFAD000BFE84817
:10142000807910F0400FFAD000BFE548807900F0D5
:101430000C000C28F9D10020C4E730B5054605F0B2
:101440000F0434B90020FFF7A0FE0020FFF70DFFC6
:101450003AE0012C06D10120FFF797FE0120FFF7AB
:1014600004FF31E0022C06D10220FFF734FD0220F8
:10147000FFF7AFFD28E0032C06D10320FFF72BFD7B
:101480000320FFF7A6FD1FE0042C1DD1C5F30314B4
:101490004CB90020FFF779FE0020FFF741FF002044
:1014A000FFF78CFF10E0012C03D10120FFF7E5FDD1
:1014B0000AE0012C03D10220FFF7C8FC04E0032C52
:1014C00002D10320FFF7C2FC30BD00B572B64CF26A
:1014D0002050BD49C8814DF62810C88108460088B3
:1014E00020F00100088062B603230122114600208B
:1014F000FFF73CFBB548007820F00F00B3490870B7
:101500000420FFF79AFFAE48007840F00200AC4993
:1015100008700846407840F00100487000BFA848B5
:10152000807910F0010FFAD0A548407910F0400FF3
:1015300006D0A448406840F48030A249486005E0E5
:10154000A048406820F480309E4948609F48007859
:1015500040F080009D4908709D48006840F40020DC
:101560009B49086000BDF0B506469548007810F02C
:10157000040F02D04FF4004266E09248406810F039
:10158000010F02D04FF4004200E08C4A8C480078F2
:10159000C0F3C200082852D2DFE800F0040D161F85
:1015A00029333D478648407810F0300F01D0202184
:1015B00000E0012145E08248407810F0300F01D072
:1015C000402100E002213CE07D48407810F0300FDF
:1015D00001D0802100E0042133E07948407810F008
:1015E000300F02D04FF4807100E0082129E07448E8
:1015F000407810F0300F02D04FF4007100E010215D
:101600001FE06F48407810F0300F02D04FF4806137
:1016100000E0202115E06A48407810F0300F02D039
:101620004FF4A06100E040210BE06548407810F0E5
:10163000300F02D04FF4C06100E0802101E00121B1
:1016400000BF00BFB2FBF1F25D48C078C0F34110AB
:1016500030B1012812D002281ED0032838D129E049
:101660005748C07810F0800F04D04FF4377002FB59
:1016700000F302E002EB8200C3012BE05048C07887
:1016800010F0800F04D04FF4B76002FB00F302E0CB
:1016900002EB820003021DE04948C07810F0800F81
:1016A00004D040F6950002FB00F302E0C2EB02100A
:1016B000C3010FE04248C07810F0800F04D040F61C
:1016C000713002FB00F302E002EB8200430201E012
:1016D000002300BF00BF3B48406810F0010F02D05C
:1016E0004FF4004500E0354D3548007900F01F000B
:1016F000401CB5FBF0F53248407900F01F0018306F
:1017000045432F480078810941B92D48407910F0B0
:10171000400F01D02C4619E01C4617E0012909D1E1
:101720002748407810F0010F01D02A4C0EE04FF40A
:1017300000440BE0022908D12248406810F0010F54
:1017400001D08C0302E01D4C00E000240A2E71D26F
:10175000DFE806F0050D151D25474959626C19484B
:10176000406C012707EB1070B4FBF0F0F0BD15489A
:10177000406CC0F30360401CB4FBF0F0F6E7114886
:10178000406CC0F30350401CB4FBF0F0EEE70D4892
:10179000406CC0F30340401CB4FBF0F0E6E708489F
:1017A000007810F0020F1AD00548407810F0010FB1
:1017B00012D00848DAE7000000E1F50500093D0015
:1017C00000400640008004400020054000500640D4
:1017D0000070044080841E004FF40040C6E70020E3
:1017E000C4E75008C2E71548407810F0020F01D056
:1017F0000020BBE71248406810F4803F01D0284623
:10180000B4E71846B2E70F48007810F0800F01D017
:101810000D48ABE70020A9E70C48006810F4002F42
:1018200002D04FF40040A1E707489FE74FF47A70D9
:101830009CE7FFE700BF00BF002097E7004006409D
:10184000008004400050064000093D000070044044
:10185000F8B50446FA4988688047F949086980471D
:1018600000BFF748006A10B1F548406A70B9F44803
:10187000C169C4F307408847F148C169C4F3072030
:101880008847E0B2EE4AD16988470DE0200C8DF818
:101890000000200A8DF80100E0B28DF80200E8484F
:1018A0000321426A68469047002504E0E4498869BC
:1018B0008047681C85B2042DF8DBE14988698047C0
:1018C0000646DF4948698047DD49C8688047304699
:1018D000F8BD38B504460D46D94988688047D849CF
:1018E0000869804744F00404D548406A90B9D44858
:1018F000C169C4F307408847D148C169C4F30720D0
:101900008847E0B2CE4AD1698847CD48C1692846A8
:1019100088470FE0200C8DF80000200A8DF80100A8
:10192000E0B28DF802008DF80350C5480421426AE8
:1019300068469047C24948698047C149C86880479E
:1019400038BDF8B504460E461746BD49886880473D
:10195000BB490869804700BFB948006A10B1B84860
:10196000406A08BBB648C169C4F307408847B44819
:10197000C169C4F307208847E0B2B14AD1698847FA
:10198000002504E0AE4988698047681C85B2042DB3
:10199000F8DB002505E0AA49886980477055681C76
:1019A00085B2BD42F7DB12E0200C8DF80000200A62
:1019B0008DF80100E0B28DF80200A1480321426ACF
:1019C000684690479E483946026A304690479C498F
:1019D000486980479A49C8688047F8BDF8B5044609
:1019E0000E4617469649886880479549086980479A
:1019F00044F004049248406AC0B99148C169C4F3F4
:101A0000074088478E48C169C4F307208847E0B281
:101A10008B4AD1698847002505E0705D884AD16905
:101A20008847681C85B2BD42F7DB12E0200C8DF8B8
:101A30000000200A8DF80100E0B28DF80200804815
:101A40000321426A684690477D483946426A3046DB
:101A500090477B49486980477949C8688047F8BD05
:101A600070B504460025002600BFA100491C4FF4B4
:101A7000005202EBC100FFF7EBFE0646A100491C35
:101A80004FF4005202EBC10101F58070FFF7E0FE58
:101A900000EB062086B2AEB1A100491C4FF4005203
:101AA00002EBC100FFF7D4FE0546A100491C4FF42C
:101AB000005202EBC10101F58070FFF7C9FE00EB97
:101AC000052085B2B542D0D1284670BD70B5044618
:101AD0000025002600BFA100491C4FF4185202EB5C
:101AE000C100FFF7B5FE0646A100491C4FF418528D
:101AF00002EBC10101F58070FFF7AAFE00EB0620A2
:101B000086B2AEB1A100491C4FF4185202EBC100DD
:101B1000FFF79EFE0546A100491C4FF4185202EB48
:101B2000C10101F58070FFF793FE00EB052085B23F
:101B3000B542D0D1284670BD2DE9F04704460F4686
:101B400016460025A8460EB9BDE8F087A100491C3D
:101B50004FF4105202EBC10101F58070FFF778FEDF
:101B60008146A100491C4FF4105202EBC100FFF75F
:101B70006FFE09EB002085B22902A000801C01EB5A
:101B8000C008324639464046FFF728FFA81985B2FB
:101B90002912A200521C4FF4105303EBC200FFF7AE
:101BA00098FEA100491C4FF4105202EBC10101F54F
:101BB0008070E9B2FFF78DFE00BFC5E72DE9F04761
:101BC00004460F4616460025A8460EB9BDE8F08724
:101BD000A100491C4FF4205202EBC10101F58070B5
:101BE000FFF736FE8146A100491C4FF4205202EB5C
:101BF000C100FFF72DFE09EB002085B22902A000ED
:101C0000C01C01EBC008324639464046FFF799FE3A
:101C1000A81985B22912A200521C4FF4205303EBDD
:101C2000C200FFF756FEA100491C4FF4205202EB00
:101C3000C10101F58070E9B2FFF74BFE00BFC5E7B7
:101C4000280000202DE9F04104460E460025A100A1
:101C5000491C4FF4205202EBC10101F58070FFF7DF
:101C6000F7FD0746A100491C4FF4205202EBC100CA
:101C7000FFF7EEFD07EB002085B2A81985B2291207
:101C8000A200521C4FF4205303EBC200FFF721FEC9
:101C9000A100491C4FF4205202EBC10101F58070F4
:101CA000E9B2FFF716FEBDE8F081000010B504466A
:101CB00000BF082C02DD4FF0FF3010BD00BFA100B7
:101CC000491C4FF4807202EBC1001021FFF701FEA6
:101CD00000BFA100491C4FF4807202EBC100FFF766
:101CE000B7FD0028F5D1A100491C4FF4007202EBAA
:101CF000C1001F21FFF7EDFD0120A040FB4909882D
:101D00008143FA4801800120A040F94909888143B4
:101D1000F74801800020F74921F81400F6490855DA
:101D200000BFA100491C4FF4407202EBC100FFF755
:101D30008FFD0028F5D10120BFE7F8B504460E4617
:101D400017461D4600BF082C02DD4FF0FF30F8BDDE
:101D500000BF012E04D0022E0ED0042E0ED10CE0B6
:101D6000042269464FF47060FFF7EBFD009810B94C
:101D70006FF00200EBE700BF00BF02E06FF004006D
:101D8000E5E700BF15F0040F02D06FF00500DEE7B5
:101D900005B3012E02D0022E1AD106E015F0210F54
:101DA00002D16FF00500D2E713E015F0200F05D047
:101DB00015F0800F02D16FF00500C8E715F0100F85
:101DC00005D015F0800F02D16FF00500BFE700E0ED
:101DD00000BF00BF2046FFF769FF05F0F00242EAAE
:101DE0000601A200521C002303EBC200FFF771FDA5
:101DF0007FB9C24807880088401CC049088008464F
:101E00000088A0F57F41F03903D14FF44040BB4931
:101E100008803912A200521C4FF4806303EBC20009
:101E2000FFF757FDA100491C4FF4806202EBC1018E
:101E300001F58070F9B2FFF74CFDA100491C4FF489
:101E4000807202EBC1000121FFF743FD00BFA1003A
:101E5000491C4FF4807202EBC100FFF7F9FC002827
:101E6000F5D10120A040A149098881439F48018004
:101E700005F00100A0409D49098808439B4908805E
:101E80000120A0409A490988814399480180002097
:101E9000984921F814009849085500BFA100491C31
:101EA0004FF4407202EBC100FFF7D2FC0028F5D0DE
:101EB00060B24CE710B5044600BF082C02DD4FF0BD
:101EC000FF3010BD00BF00BFA100491C002202EB83
:101ED000C100FFF7BDFC00F00F00012802D06FF039
:101EE0000400EEE700BF00BFA100491C4FF44072A0
:101EF00002EBC100FFF7ACFC132802D06FF0020028
:101F0000DFE700BFA100491C4FF4807202EBC10063
:101F10000221FFF7DEFC00BFA100491C4FF48072D4
:101F200002EBC100FFF794FC0028F5D10EE0A10000
:101F3000491C4FF4807202EBC100FFF789FC28B9FD
:101F40002046FFF7B3FE6FF00300BAE7A100491C7B
:101F50004FF4407202EBC100FFF77AFC1428E6D17F
:101F60000120AEE770B504460D46164600BF082CAA
:101F700002DD4FF0FF3070BD00BF00BFA100491C63
:101F8000002202EBC100FFF763FC00F00F00012804
:101F900002D06FF00400EEE700BF00BFA100491CB3
:101FA0004FF4407202EBC100FFF752FC132802D03D
:101FB0006FF00200DFE700BF2978687861F31F2027
:101FC0000146A87861F31F200146E87861F31F20DD
:101FD0000146481C00D011B96FF00B00CBE716B9D1
:101FE0006FF00A00C7E7A100491C4FF4406202EB02
:101FF000C10004222946FFF7F1FC3112A200521C55
:102000004FF4805303EBC200FFF763FCA100491CAF
:102010004FF4805202EBC10101F58070F1B2FFF77D
:1020200058FCA100491C4FF4807202EBC10004214E
:10203000FFF74FFC00BFA100491C4FF4807202EB78
:10204000C100FFF705FC0028F5D10120A040274979
:102050000988084201D000208DE722E0A100491C38
:102060004FF4007202EBC100FFF7F2FB10F0080F13
:102070000BD0A100491C4FF4007202EBC1000821F3
:10208000FFF727FC6FF00C0075E7A100491C4FF427
:10209000407202EBC100FFF7DBFB10B96FF00300E9
:1020A00069E7A100491C4FF4407202EBC100FFF741
:1020B000CFFB1728D2D101205DE710B5044600BF41
:1020C000082C02DD4FF0FF3010BD00BF00BFA100A3
:1020D000491C002202EBC100FFF7BAFB00F00F0021
:1020E00001280DD06FF00400EEE700001A00002078
:1020F0001C0000208C0000201E0000201800002082
:1021000000BFA100491C4FF4807202EBC1000821FE
:10211000FFF7DFFB00BFA100491C4FF4807202EB08
:10212000C100FFF795FB0028F5D10120A040F94937
:1021300009888143F74801800120A040F6490988B9
:10214000084201D00020BFE710E0A100491C4FF475
:10215000007202EBC100FFF77BFB10F0080F05D007
:102160002046FFF7A3FD6FF00C00ADE7A100491C6E
:102170004FF4407202EBC100FFF76AFB0028E4D184
:102180000120A1E72DE9F0410446884615460026C6
:10219000002700BF082C02DD701EBDE8F08100BFE3
:1021A00000BFA100491C002202EBC100FFF750FB59
:1021B00000F00F00012802D06FF00400EDE700BF2F
:1021C00000BF15B96FF00D00E7E700BFA100491C83
:1021D0004FF4407202EBC100FFF73AFB0646172EA0
:1021E00004D01C2E02D06FF00600D6E70120A040DC
:1021F000C8490988084228D0A100491C4FF4007240
:1022000002EBC100FFF724FB00F01F0616F0100FD1
:1022100010D0A100491C4FF4007202EBC100102144
:10222000FFF757FB0120A040BA4909888143B9480C
:1022300001800AE016F0080F05D02046FFF736FDB2
:102240006FF00C00A9E70020A7E7A100491C4FF49C
:10225000F85202EBC100FFF7FBFA8006070CBD4203
:1022600000DD3D4623E02046FFF7FAFB0746A100CC
:10227000491C4FF4407202EBC100FFF7E9FA064631
:10228000172E07D01C2E05D02046FFF70FFD6FF04C
:10229000060082E70120A0409F490988084203D038
:1022A000BD4201DD002078E7BD4200DC00E0DAE756
:1022B00000BF2A4641462046FFF73EFCA100491CCC
:1022C0004FF4807202EBC1002021FFF702FB00BF38
:1022D000A100491C4FF4807202EBC100FFF7B8FA6D
:1022E0000028F5D10120A0408A490988084389497E
:1022F0000880284651E72DE9F047044688461646EF
:102300000027002500BF082C02DD681EBDE8F0870D
:1023100000BF00BFA100491C002202EBC100FFF773
:1023200097FA00F00F00012802D06FF00400EDE7EB
:1023300000BF00BF16B96FF00D00E7E700BFA100B6
:10234000491C4FF4F05202EBC100FFF781FA8006FE
:10235000050CB54200DA2E4638E02046FFF7B6FB02
:102360000546A100491C4FF4407202EBC100FFF783
:102370006FFA0746172F1ED01C2F16D105B126E085
:102380002046FFF76DFB8146A100491C4FF4F8522F
:1023900002EBC100FFF75CFAB9EB802F0BD12046AE
:1023A000FFF784FC6FF00600B0E72046FFF77EFCE5
:1023B0006FF00600AAE70120A040574909880842AB
:1023C00002D00DB90020A1E705B100E0C5E700BFCC
:1023D000B54200DA2E46324641462046FFF7EEFB74
:1023E000A100491C4FF4807202EBC1004021FFF7AD
:1023F00070FA00BFA100491C4FF4807202EBC100CB
:10240000FFF726FA0028F5D130467FE72DE9F05F87
:1024100004468B4615461E46DDF828A00027B84620
:1024200000BF082C02DD781EBDE8F09F00BFA100B0
:10243000491C002202EBC100FFF70AFA00F00F006E
:10244000022802D0042802D100E000BF02E06FF0B1
:102450000400E9E700BF00BF15B96FF00D00E3E726
:1024600000BF96F80090707869F31F208146B0781D
:1024700069F31F208146F07869F31F208146B9F186
:10248000000F02D16FF00B00CEE7BAF1000F02D1BE
:102490006FF00A00C8E7A100491C4FF4407202EB3C
:1024A000C100FFF7D5F90746422F04D0222F02D0F2
:1024B0006FF00600B8E7A100491C4FF4406202EB40
:1024C000C10004223146FFF789FA4FEA2A21A2000F
:1024D000521C4FF4805303EBC200FFF7FAF9A1003E
:1024E000491C4FF4805202EBC10101F580700AF0E3
:1024F000FF01FFF7EEF9A100491C4FF4F85202EB7F
:10250000C100FFF7A5F980064FEA1048454500DDF8
:10251000454620E01C0000201A0000202046FFF75E
:102520009FFA8046A100491C4FF4407202EBC100A3
:10253000FFF78EF910B96FF0030075E70120A04096
:10254000F7490988084203D0454501DD00206BE7C3
:10255000454500DC00E0E1E700BF2A465946204639
:10256000FFF7EAFAA100491C4FF4807202EBC100A8
:102570002021FFF7AEF900BFA100491C4FF4807283
:1025800002EBC100FFF764F90028F5D125E0A100B6
:10259000491C4FF4007202EBC100FFF759F900F03B
:1025A0001F0717F0100F09D0A100491C4FF400724B
:1025B00002EBC1001021FFF78CF90FE017F0080FB4
:1025C0000BD0A100491C4FF4007202EBC10008219E
:1025D000FFF77FF96FF00C0026E7D8E700BF284629
:1025E00022E72DE9FC4704468A4616461F46DDF8D9
:1025F0002880002500BF082C02DD681EBDE8FC878E
:1026000000BFA100491C002202EBC100FFF720F926
:10261000814600F00F00022802D0042802D100E019
:1026200000BF02E06FF00400E8E700BF00BF16B98A
:102630006FF00D00E2E700BFBA4830F81400E8B9C7
:102640001AE02046FFF742FA0546A100491C4FF464
:10265000407202EBC100FFF7FBF810B96FF0030006
:10266000CCE70120A040AE490988084202D00DB94C
:102670000020C3E705B100E0E3E700BF09F0070071
:10268000022802D004287CD158E0A64830F8140073
:10269000E8BB082269462046FFF790FAA100491CD2
:1026A0004FF4807202EBC1004021FFF712F900BF26
:1026B000A100491C4FF4807202EBC100FFF7C8F87B
:1026C0000028F5D19DF8000038709DF80100787061
:1026D0009DF80200B8709DF80300F8709DF80400A2
:1026E000A8F800009DF80500B8F8001000EB0120E4
:1026F000A8F800009DF806008A4921F814009DF80A
:10270000070031F8141000EB0120864900E004E0D6
:1027100021F81400802084490855824830F81400BC
:10272000B04201DD354602E07E4830F814502E46B6
:102730002A4651462046FFF741FA55E0794830F8DD
:102740001400A8BB022269462046FFF737FAA10011
:10275000491C4FF4807202EBC1004021FFF7B9F829
:1027600000BFA100491C4FF4807202EBC100FFF7CB
:102770006FF80028F5D19DF800006A4921F814008F
:1027800000E029E09DF8010031F8141000EB012071
:10279000644921F81400084630F8140040F2EA5168
:1027A000884206DD2046FFF781FA6FF47A7025E74C
:1027B00002E080205C4908555A4830F81400B042C5
:1027C00001DD354602E0574830F814502A4651469C
:1027D0002046FFF7F3F907E029462046FFF732FAD3
:1027E000504820F8145000BF00BFA100491C4FF40E
:1027F000807202EBC1004021FFF76BF800BFA1001F
:10280000491C4FF4807202EBC100FFF721F8002849
:10281000F5D1444830F81400401B424921F8140017
:10282000084630F8140030B13F48005D40F0010028
:102830003D49085502E000203B4908552846DDE6A1
:102840002DE9F04104460E461546002700BF082C2E
:1028500002DD781EBDE8F08100BF082E7FD2DFE8E0
:1028600006F0041C232F3B4D59722F78012F07D1FE
:102870000120A0402A4909880843294908800BE023
:102880003FB90120A040264909888143244801809E
:1028900002E06FF00900DDE764E021480088204194
:1028A00000F0010028705DE0A100491C4FF4F852CF
:1028B00002EBC100FEF7CCFF8006000C288051E03F
:1028C000A100491C4FF4F05202EBC100FEF7C0FF1B
:1028D0008006000C288045E028781F2802DD6FF074
:1028E0000900B7E72A7802F01F01A200521C4FF43A
:1028F000007303EBC200FEF7ECFF33E0A100491CBC
:102900004FF4007202EBC100FEF7A2FF00F01F00BF
:10291000287027E028781F2808DD6FF0090099E764
:102920001A0000208C0000201E0000202A7802F0EF
:102930001F01A200521C4FF4305303EBC200FEF7FC
:10294000C8FF0FE00BE0A100491C4FF4305202EB2E
:10295000C100FEF77DFF00F01F00287002E06FF05D
:10296000090077E700BF012074E770B504460E4602
:10297000154600BF082C02DD4FF0FF3070BD00BFD0
:10298000082E6ED2DFE806F0B4040E182F3A519AE2
:102990002978A200521C4FF4B05303EBC200FEF79B
:1029A00098FFA8E02978A200521C4FF4A85303EB2B
:1029B000C200FEF78EFF9EE02A881112A200521C70
:1029C0004FF4905303EBC200FEF783FF2A88D1B285
:1029D000A200521C4FF4905303EBC20202F5807028
:1029E000FEF777FF87E0A100491C4FF4406202EB3D
:1029F000C10004222946FEF7F1FF7CE02A8811126B
:102A0000A200521C4FF4805303EBC200FEF761FF9B
:102A10002A88D1B2A200521C4FF4805303EBC202A9
:102A200002F58070FEF755FF65E000BFA100491C6C
:102A3000002202EBC100FEF70BFF00F00F0001289F
:102A400002D06FF0040099E700BFA100491C4FF4C9
:102A50003C5202EBC100FEF7FBFE18B16FF0010023
:102A60008CE745E0A100491C4FF4807202EBC100E5
:102A70002221FEF72EFF16E0A100491C4FF4007240
:102A800002EBC100FEF7E4FE10F0080F0BD0A1002E
:102A9000491C4FF4007202EBC1000821FEF719FF38
:102AA0006FF00C006AE7A100491C4FF4807202EB42
:102AB000C100FEF7CDFE0028DED11CE000BFA10062
:102AC000491C002202EBC100FEF7C2FE00F00F001D
:102AD000012802D06FF0040050E700BF2978A2005F
:102AE000521C4FF43C5303EBC200FEF7F2FE02E02F
:102AF0006FF0090042E700BF01203FE72DE9F041F8
:102B000004460E46154600BF082C03DD4FF0FF308B
:102B1000BDE8F08100BF0D2E6FD2DFE806F007128E
:102B20001C263D48B55F7A7F848EA100A100491C18
:102B3000002202EBC100FEF78BFE00F0F0002870CF
:102B4000A5E0A100491C4FF4B05202EBC100FEF712
:102B50007FFE28709BE0A100491C4FF4A85202EBB5
:102B6000C100FEF775FE287091E0A100491C4FF4EA
:102B7000905202EBC10101F58070FEF769FE074635
:102B8000A100491C4FF4905202EBC100FEF760FE19
:102B900007EB002028707AE0A100491C4FF4406246
:102BA00002EBC10004222946FEF7CBFE6FE0A10034
:102BB000491C4FF4805202EBC10101F58070FEF711
:102BC00047FE0746A100491C4FF4805202EBC100AA
:102BD000FEF73EFE07EB0020288058E000BFA10072
:102BE000491C002202EBC100FEF732FE00F00F008C
:102BF000012803D06FF004008AE745E000BFA10080
:102C0000491C4FF43C5202EBC100FEF721FE288024
:102C10003DE02046FEF724FF288038E02046FEF7FE
:102C200055FF288033E0A100491C4FF4407202EBAD
:102C3000C100FEF70DFE287029E0A100491C00220A
:102C400002EBC100FEF704FE012804D12046FEF786
:102C50003DFF288003E00F4830F81400288016E07C
:102C600000BFA100491C002202EBC100FEF7F0FDED
:102C700000F00F00012802D06FF0040048E700BF09
:102C80000548005D287002E06FF0010040E700BFDA
:102C900001203DE78C0000201E0000207047704797
:102CA00070477047014608787047017070470020F0
:102CB000704770477047704700B141B9AFF22302C7
:102CC000F74B9A60AFF22903F54AD36002E0F44A69
:102CD0009060D160704700B141B9AFF23B02F04B58
:102CE0001A61AFF24103EE4A536102E0EC4A10610F
:102CF0005161704700BFEA4A128812F4807FFAD00F
:102D000000B141B9AFF26302E54B9A61AFF26503DE
:102D1000E34AD36102E0E24A9061D161704700BFAB
:102D2000DF4A128812F4007FFAD000B141B9AFF245
:102D30008102DB4B9A61AFF28503D94AD36102E08D
:102D4000D74A9061D161704700BFD54A128812F40A
:102D5000007FFAD000B139B9AFF2A703D04A1362AD
:102D6000AFF2AD03536202E0CD4A10625162704788
:102D700010B54FF43850FEF76BFD10F0010F01D085
:102D8000012400E00024204610BD10B500244FF4BB
:102D90003850FEF75DFD10F0300F01D0012400E047
:102DA0000024204610BD10B54FF43850FEF750FDFA
:102DB000044624F0800421464FF43850FEF789FD84
:102DC0004FF43850FEF744FD044644F08004214699
:102DD0004FF43850FEF77DFD10BD70B50546002458
:102DE0004FF43850FEF734FD044614F0400F02D182
:102DF0004FF0FF3070BD24F03804012D02D144F0B3
:102E0000300401E044F0380421464FF43850FEF716
:102E100060FDFFF7C8FF4FF43850FEF719FD044678
:102E2000012D04D114F0300F06D00020E2E714F099
:102E3000380F01D00020DDE74FF0FF30DAE770B542
:102E4000044600254FF43850FEF702FD0546C5F351
:102E50008010207005F03800202802D0382803D1D7
:102E600000BF0120607002E00020607000BF00BF62
:102E700005F03800102805D0182802D0202804D1E9
:102E800000BF00BF0120A07002E00020A07000BFC2
:102E900000BF05F03800082805D0182802D02028E7
:102EA00004D100BF00BF0120E07002E00020E0700C
:102EB00000BF00BF70BD70B505460024287801280A
:102EC00002D144F0400401E024F040046878012875
:102ED00002D144F0380412E0E878012808D1A8783B
:102EE000012802D144F0180409E044F0080406E087
:102EF000A878012802D144F0100400E000BF214668
:102F00004FF43850FEF7E5FCFFF74DFF70BD70B58C
:102F10000026002400254FF4B050FEF799FC064629
:102F20004FF4C050FEF794FC0446254606EB0520FE
:102F300085B2284670BD70B50446E5B22612294612
:102F40004FF4B050FEF7C5FC31464FF4C050FEF7C9
:102F5000C0FC70BD70B50026002400254FF4A850B9
:102F6000FEF776FC00F0F0064FF4B850FEF770FC68
:102F70000446254606EB052085B2284670BD70B58F
:102F80000446E5B2261205F0F0014FF4A850FEF712
:102F9000A0FC31464FF4B850FEF79BFC70BD00B565
:102FA00085B0062269464FF41060FEF7CAFC042281
:102FB00004A99001FEF7C5FC042203A94FF4A06008
:102FC000FEF7BFFC042202A94FF47060FEF7B9FCC3
:102FD00080210020FEF77DFC0020FEF739FC062250
:102FE00069464FF41060FEF7F9FC042204A9900131
:102FF000FEF7F4FC042203A94FF4A060FEF7EEFCF8
:10300000042202A94FF47060FEF7E8FC05B000BD91
:103010002DE9F04105460E460027FFF7C0FFF5B148
:1030200000BF00240AE0285D384447B2102F03DDBA
:103030004FF0FF30BDE8F081601C44B2082CF2DB99
:1030400000240AE0295DA200521C4FF4F85303EB60
:10305000C200FEF73EFC601C44B2082CF2DBEEB16D
:103060000027002409E0305D384447B2102F02DD0C
:103070004FF0FF30DEE7601C44B2082CF3DB002485
:103080000AE0315DA200521C4FF4F05303EBC20082
:10309000FEF71FFC601C44B2082CF2DB0020C9E7DD
:1030A000280000202DE9FC4106460C4600250020A2
:1030B00000900190102E78D2DFE806F0080B1A1667
:1030C0001E222633405255595D5E626CFFF767FF42
:1030D0006EE01CB10094009808300190DDE9000119
:1030E000FFF796FFBDE8FC812088FFF748FF5FE00F
:1030F000FFF730FF20805BE02088FFF71CFF57E0E0
:10310000FFF705FF208053E0208801124FF498500C
:10311000FEF7DFFB2088C1B24FF4A050FEF7D9FBC9
:1031200046E04FF4A050FEF793FB07464FF498504B
:10313000FEF78EFB07EB0020208039E08148807885
:1031400020708048C07860707E480079A0707D480B
:103150004079E0707B48807920710020607127E021
:10316000FFF721FE24E02046FFF7A5FE20E02046E1
:10317000FFF765FE1CE01BE02078FFF72EFEB1E7AD
:10318000FFF703FEC5B268B2401C01D1401EA9E79B
:1031900025700DE0FFF7ECFDC5B268B2401C02D10E
:1031A000401E9FE701E0257002E04FF0FF3099E7F5
:1031B00000BF002096E770B504464FF4D850FEF7E4
:1031C00047FB20704FF4D050FEF742FB05464FF40A
:1031D000C850FEF73DFB05EB0020608070BD10B5C8
:1031E000044621784FF4D850FEF773FB6088011233
:1031F0004FF4C850FEF76DFB6088C1B24FF4D05059
:10320000FEF767FB10BD10B50020FEF721FB10BDD7
:1032100070B50446002534F03A0001D0681E70BD38
:103220000020FEF715FB0546254329460020FEF742
:1032300050FB0020F3E710B50446062221464FF468
:103240001060FEF77EFB042204F10E019001FEF7F0
:1032500078FB042204F10A014FF4A060FEF771FB31
:103260000422A11D4FF47060FEF76BFB3648007816
:10327000A07435484178E17481782175C178617511
:1032800032480078A07510BD10B5044606222146CC
:103290004FF41060FEF7A2FB042204F10E0190012E
:1032A000FEF79CFB042204F10A014FF4A060FEF734
:1032B00095FB0422A11D4FF47060FEF78FFBA07CEC
:1032C00021490870E07C4870207D8870607DC8705E
:1032D000A07D1E49087010BD70B505460C46062D30
:1032E0001CD2DFE805F003070B0F13172046FFF78A
:1032F000CBFF16E02046FFF79EFF12E02078FFF795
:1033000087FF70BDFFF77FFF20700AE02046FFF7C0
:1033100066FF06E02046FFF74EFF02E04FF0FF3069
:10332000EFE700BF0020ECE770B504464FF43850DB
:10333000FEF78EFA0546C5F38000E070C5F3400045
:10334000A07070BD28000020500000205400002014
:1033500010B500BFCB490F20FFF7A4FE401C02D1DF
:10336000C9A000F00DFBC74800780028F2D010BDBE
:1033700010B5CC490120FFF795FE401C04D1CAA02E
:1033800000F0FEFA00BFFEE710BD10B5002341F2C9
:10339000883201211846FEF7D0FCCA490860084669
:1033A000006828B10021C8A000F0EAFA00BFFEE7DB
:1033B0000021CCA000F0E4FA41F27072CF49002065
:1033C000FEF7D0FDBF49086008460068012805D017
:1033D0000021CBA000F0D4FA00BFFEE70021D1A06D
:1033E00000F0CEFA10BD10B5D649D748FFF764FCFF
:1033F000D649D748FFF76FFCD649D748FFF78FFC6F
:1034000010BD00B585B0D5490020FFF765FFD34951
:103410000120FFF761FF03A90820FFF743FE03A97E
:10342000CFA000F0ADFACD4841790079CB4AD278EF
:10343000CDE900200291C948837842780178CEA076
:1034400000F09EFAC548407A0090C448037AC279D9
:103450008179D3A000F094FAC048407C0090BF4826
:10346000037CC27B817BD3A000F08AFABB48407BFF
:103470000090BA48037BC27A817AD3A000F080FA28
:10348000B648407D0090B548037DC27C817CD3A0C6
:1034900000F076FAD6A000F073FA05B000BD2DE971
:1034A000F04705468846914600260027A900491C9A
:1034B0004FF4407202EBC100FEF7CAF9002864D055
:1034C000132854D0172802D01C2873D13EE0A9003D
:1034D000491C4FF4007202EBC100FEF7B9F910F07D
:1034E000010F08D0A900491C4FF4007202EBC10083
:1034F0000121FEF7EEF92846FEF7E8FA061E24DD64
:10350000B6F5006F01DD4FF40066324641462846AD
:10351000FEF7F1FE0446002C02DC2046BDE8F087F1
:10352000002710E0F01B82B208EB07012846FEF7E7
:1035300029FE0446002C04DA2846FEF7B7FB204695
:10354000ECE7381987B2BE42ECD134E02946AFA08F
:1035500000F016FA2846FEF7B0FD0446012801D017
:103560002046DBE72946ADA000F00AFA23E04A46F0
:103570002946ADA000F004FA2846FEF79BFC04465D
:10358000012801D02046C9E715E02946ACA000F08B
:10359000F7F900234A4601212846FEF7CEFB0446F0
:1035A000A84201D02046B9E72946A9A000F0E8F9D1
:1035B00001E0FFE700BF00BF0120AFE72DE9FE43B8
:1035C000074688469146B900491C4FF4407202EB09
:1035D000C100FEF73DF900283BD022284ED13846E5
:1035E000FEF774FA051E33DDB5F5006F01DD4FF40B
:1035F000006501A802AB2A46414600903846FEF716
:10360000F0FF0446002C07DC2246394693A000F068
:10361000B7F92046BDE8FE83A5B2002616E0BDF846
:1036200004000090A81B82B208EB060102AB3846EA
:10363000FEF7ECFE0446002C06DA224639468EA040
:1036400000F09EF92046E5E7301986B2AE42E6D199
:1036500015E039468EA000F093F900234A46022176
:103660003846FEF76AFB0446B84201D02046D1E74F
:103670004A4639468AA000F083F900E000BF00BF47
:103680000120C7E788000020556E6B6E6F776E20B3
:10369000504859204C696E6B207374617574732E99
:1036A0000D0A00007400002057495A434849502031
:1036B000496E697469616C697A6564206661696CD8
:1036C0002E0D0A0070000020534F434B5F544350AF
:1036D000532025643A536F636B6574204572726F93
:1036E000720D0A00534F434B5F54435053202564DF
:1036F0003A4F70656E65640D0A000000840000207A
:10370000534F434B5F544350532025643A536F63E8
:103710006B657420436F6E6E656374204572726FC3
:10372000720D0A00534F434B5F544350532025649E
:103730003A536F636B657420436F6E6E6563746597
:10374000640D0A001B050000110500003F05000084
:103750002505000081040000E90400005800002055
:103760000D0A3D3D3D202573204E455420434F4ECC
:1037700046203D3D3D0D0A004D41433A2025303263
:10378000583A253032583A253032583A2530325896
:103790003A253032583A253032580D0A00000000E0
:1037A0005349503A2025642E25642E25642E256425
:1037B0000D0A00004741523A2025642E25642E252B
:1037C000642E25640D0A00005355423A2025642ECC
:1037D00025642E25642E25640D0A0000444E533ABC
:1037E0002025642E25642E25642E25640D0A0000F4
:1037F0003D3D3D3D3D3D3D3D3D3D3D3D3D3D3D3DF9
:103800003D3D3D3D3D3D0D0A0000000025643A432D
:103810006C6F7365576169740D0A000025643A4343
:103820006C6F7365640D0A0025643A4C69737465A6
:103830006E2C20706F7274205B25645D0D0A000091
:1038400025643A4C425453746172740D0A000000AE
:1038500025643A4F70656E65640D0A0025643A2050
:103860007265637666726F6D206572726F722E205C
:10387000256C640D0A00000025643A2073656E64AF
:10388000746F206572726F722E20256C640D0A00B1
:1038900025643A4C425553746172740D0A0000005D
:1038A00025643A4F70656E65642C20706F727420C9
:1038B0005B25645D0D0A00002DE9F05F05460020E0
:1038C00092469B4688460646814640241BE0284691
:1038D00041464746224600F042F852465B46801A6F
:1038E000994110D310461946224600F029F82D1AA6
:1038F00067EB01084F4622460120002100F020F826
:1039000017EB00094E41201EA4F10104DFDC4846FC
:1039100031462A464346BDE8F09F0000064C074D5D
:1039200006E0E06840F0010394E80700984710348F
:10393000AC42F6D3FCF770FD383E0000583E000064
:10394000202A04DB203A00FA02F10020704791405F
:10395000C2F1200320FA03F3194390407047202A54
:1039600004DB203A21FA02F00021704721FA02F329
:10397000D040C2F120029140084319467047000030
:103980000FB4054B10B503A9044A029800F018F8CB
:1039900010BC5DF814FB00000909000014000020B1
:1039A00002E008C8121F08C1002AFAD17047704708
:1039B000002001E001C1121F002AFBD17047000066
:1039C0002DE9FF4F8DB005460F460026E9E1252879
:1039D00079D100246D1CF74AA246A14601212B781B
:1039E000203B01FA03F0104202D004436D1CF6E7BD
:1039F00028782A2810D06FF02F022878A0F1300103
:103A0000092915D80AEB8A0102EB410144F00204AE
:103A100000EB010A6D1CF0E757F804ABBAF1000F98
:103A200003DA44F40054CAF1000A44F002046D1CA5
:103A300028782E2817D115F8010F44F004042A28FD
:103A40000ED06FF02F022878A0F1300109290AD892
:103A500009EB890102EB410100EB01096D1CF2E762
:103A600057F8049B6D1C28786C280FD006DC4C2876
:103A700017D068280DD06A2814D104E0742810D01B
:103A80007A280FD10DE044F400140AE044F48014C5
:103A900001E044F440146978814202D16D1C04F5C0
:103AA00080146D1C95F800C0BCF16E0F2AD012DC9A
:103AB000BCF1630F3CD007DCBCF1000F76D0BCF149
:103AC000580F19D1A7E018E0BCF1640F6FD0BCF11A
:103AD000690F11D16BE0BCF1730F32D006DCBCF181
:103AE0006F0F71D0BCF1700F06D196E0BCF1750F6D
:103AF0006BD0BCF1780F69D06046DDE90F129047BA
:103B0000761C4DE1C4F30250022806D003280AD0E7
:103B1000042801CF0AD0066042E101CF4FEAE671E6
:103B2000C0E900613CE101CF068039E1067037E170
:103B300001CF8DF8000000208DF80100EB46012038
:103B400003E057F804BB4FF0FF3061074FF000016E
:103B500002D40DE008F10101884649450FDA80459D
:103B6000F8DB1BF808100029F4D108E008F1010186
:103B700088468142FADB1BF808100029F6D1DDE9FE
:103B80000F23AAEB08008146214600F03CF930449F
:103B900000EB080604E0DDE90F121BF8010B90476B
:103BA000B8F10108F7D221464846F4E0FDE00A21C9
:103BB000C4F302524FF0000B0891022A07D001CF44
:103BC000C117032A09D00AE030E022E023E0FF1DFC
:103BD00027F00707F7E8020105E000B2C117042A41
:103BE00001D140B2C117002906DA0023D0EB03004F
:103BF00063EB01012D2202E0220504D52B228DF872
:103C00002420012203E0E20701D02022F7E79046BA
:103C10004EE00A210BE0102109E010214FF0000BCB
:103C200044F004044FF00809089103E008214FF024
:103C3000000B0891C4F30252022A04D001CF0021E4
:103C4000032A06D007E0FF1D27F00707F7E8020167
:103C500005E080B20021042A01D1C0B200214FF05A
:103C60000008220724D5BCF1700F29D0089B83F0EF
:103C7000100353EA0B0309D150EA010206D03022A7
:103C80008DF824208DF825C002229046089B83F0F1
:103C9000080353EA0B030BD150EA010201D162077A
:103CA00006D530228DF824204FF00108A9F1010932
:103CB000BCF1580F09D040A20B9208AA0A9211E059
:103CC00040228DF824200122DFE740A2F4E75B4682
:103CD000089AFFF7F1FD0B9B9B5C0A9AA2F1010287
:103CE0000A92137050EA0102F1D10A98ADEB00007C
:103CF00000F1200B600702D524F4803401E04FF07E
:103D00000109D94502DDA9EB0B0000E0002000EB22
:103D10000B0141440890AAEB01000B90E00306D48C
:103D2000DDE90F2321460B9800F06DF806444FF0B3
:103D300000090DF1240A07E0DDE90F121AF8090065
:103D40009047761C09F10109C145F5DBE0030CD56C
:103D5000DDE90F2321460B9800F055F8064404E0F6
:103D6000DDE90F1230209047761C0899481E089014
:103D70000029F5DC08E00A980A990078491C0A91A4
:103D8000DDE90F129047761CBBF10001ABF1010B8E
:103D9000F1DC0B982146DDE90F2300F021F8064401
:103DA0006D1C287800287FF412AE11B03046BDE8B3
:103DB000F08F0000092801003031323334353637B6
:103DC0003839616263646566000000003031323367
:103DD0003435363738394142434445460000000007
:103DE0002DE9F0410446002517461E46880405D4F7
:103DF00006E039462020B04705F10105641EF8D5DC
:103E00002846BDE8F0812DE9F041044600259046A2
:103E10001E46C80301D5302700E02027880405D5B9
:103E200006E041463846B04705F10105641EF8D565
:103E30002846BDE8F0810000583E00000000002048
:103E40008C000000A0390000E43E00008C0000203F
:103E500014040000B0390000000000000000000061
:103E60000000000000000000000000000000000052
:103E700000C0000000000000000000000000000082
:103E800001025735353030009D2C00009F2C00007A
:103E9000A12C0000A32C0000A52C0000AB2C0000DE
:103EA0000000000000000000000000000000000012
:103EB0000008DC00ABCDC0A8017BFFFFFF00C0A85D
:103EC00001010000000001000000000002020202E7
:103ED000020202020202020202020202C0A80164FD
:043EE00000000000DE
:0400000500000411E2
:00000001FF
